{
  "contractName": "Lottery",
  "abi": [
    {
      "inputs": [],
      "payable": false,
      "stateMutability": "nonpayable",
      "type": "constructor"
    },
    {
      "payable": true,
      "stateMutability": "payable",
      "type": "fallback"
    },
    {
      "constant": false,
      "inputs": [
        {
          "name": "guess",
          "type": "uint256"
        }
      ],
      "name": "makeGuess",
      "outputs": [],
      "payable": false,
      "stateMutability": "nonpayable",
      "type": "function"
    },
    {
      "constant": false,
      "inputs": [],
      "name": "closeGame",
      "outputs": [
        {
          "name": "",
          "type": "bool"
        }
      ],
      "payable": false,
      "stateMutability": "nonpayable",
      "type": "function"
    },
    {
      "constant": false,
      "inputs": [],
      "name": "getPrice",
      "outputs": [
        {
          "name": "",
          "type": "bool"
        }
      ],
      "payable": false,
      "stateMutability": "nonpayable",
      "type": "function"
    },
    {
      "constant": false,
      "inputs": [],
      "name": "getTokens",
      "outputs": [
        {
          "name": "",
          "type": "uint256"
        }
      ],
      "payable": false,
      "stateMutability": "nonpayable",
      "type": "function"
    },
    {
      "constant": false,
      "inputs": [],
      "name": "getGuess",
      "outputs": [
        {
          "name": "",
          "type": "bytes32"
        }
      ],
      "payable": false,
      "stateMutability": "nonpayable",
      "type": "function"
    }
  ],
  "bytecode": "0x60606040526001600360006101000a81548160ff021916908315150217905550341561002a57600080fd5b33600360016101000a81548173ffffffffffffffffffffffffffffffffffffffff021916908373ffffffffffffffffffffffffffffffffffffffff1602179055506103e8604051808281526020019150506040518091039020600481600019169055506107ab8061009c6000396000f30060606040526004361061006d576000357c0100000000000000000000000000000000000000000000000000000000900463ffffffff16806322666da61461015b578063786b844b1461017e5780638d582ae4146101ab57806398d5fdca146101dc578063aa6ca80814610209575b60011515600360009054906101000a900460ff16151514151561008f57600080fd5b670de0b6b3a7640000341415156100a557600080fd5b6001600260003373ffffffffffffffffffffffffffffffffffffffff1673ffffffffffffffffffffffffffffffffffffffff168152602001908152602001600020600001600082825401925050819055506000805480600101828161010a919061072e565b9160005260206000209001600033909190916101000a81548173ffffffffffffffffffffffffffffffffffffffff021916908373ffffffffffffffffffffffffffffffffffffffff16021790555050005b341561016657600080fd5b61017c6004808035906020019091905050610232565b005b341561018957600080fd5b610191610368565b604051808215151515815260200191505060405180910390f35b34156101b657600080fd5b6101be6103ed565b60405180826000191660001916815260200191505060405180910390f35b34156101e757600080fd5b6101ef610437565b604051808215151515815260200191505060405180910390f35b341561021457600080fd5b61021c610591565b6040518082815260200191505060405180910390f35b60011515600360009054906101000a900460ff16151514151561025457600080fd5b60008111151561026357600080fd5b6000600260003373ffffffffffffffffffffffffffffffffffffffff1673ffffffffffffffffffffffffffffffffffffffff168152602001908152602001600020600001541115156102b457600080fd5b6001600260003373ffffffffffffffffffffffffffffffffffffffff1673ffffffffffffffffffffffffffffffffffffffff1681526020019081526020016000206000016000828254039250508190555080604051808281526020019150506040518091039020600260003373ffffffffffffffffffffffffffffffffffffffff1673ffffffffffffffffffffffffffffffffffffffff168152602001908152602001600020600101816000191690555050565b6000600360019054906101000a900473ffffffffffffffffffffffffffffffffffffffff1673ffffffffffffffffffffffffffffffffffffffff163373ffffffffffffffffffffffffffffffffffffffff161415156103c657600080fd5b6103ce6105db565b6000600360006101000a81548160ff0219169083151502179055905090565b6000600260003373ffffffffffffffffffffffffffffffffffffffff1673ffffffffffffffffffffffffffffffffffffffff16815260200190815260200160002060010154905090565b60006001600081548110151561044957fe5b906000526020600020900160009054906101000a900473ffffffffffffffffffffffffffffffffffffffff1673ffffffffffffffffffffffffffffffffffffffff163373ffffffffffffffffffffffffffffffffffffffff161415156104ae57600080fd5b3373ffffffffffffffffffffffffffffffffffffffff166108fc60023073ffffffffffffffffffffffffffffffffffffffff16318115156104eb57fe5b049081150290604051600060405180830381858888f19350505050151561051157600080fd5b600360019054906101000a900473ffffffffffffffffffffffffffffffffffffffff1673ffffffffffffffffffffffffffffffffffffffff166108fc3073ffffffffffffffffffffffffffffffffffffffff16319081150290604051600060405180830381858888f19350505050151561058a57600080fd5b6001905090565b6000600260003373ffffffffffffffffffffffffffffffffffffffff1673ffffffffffffffffffffffffffffffffffffffff16815260200190815260200160002060000154905090565b6000806000805490509150600090505b8181101561072a576004546000191660026000808481548110151561060c57fe5b906000526020600020900160009054906101000a900473ffffffffffffffffffffffffffffffffffffffff1673ffffffffffffffffffffffffffffffffffffffff1673ffffffffffffffffffffffffffffffffffffffff1681526020019081526020016000206001015460001916141561071d5760018054806001018281610694919061072e565b9160005260206000209001600080848154811015156106af57fe5b906000526020600020900160009054906101000a900473ffffffffffffffffffffffffffffffffffffffff16909190916101000a81548173ffffffffffffffffffffffffffffffffffffffff021916908373ffffffffffffffffffffffffffffffffffffffff160217905550505b80806001019150506105eb565b5050565b81548183558181151161075557818360005260206000209182019101610754919061075a565b5b505050565b61077c91905b80821115610778576000816000905550600101610760565b5090565b905600a165627a7a72305820c46d6cafae314936f34f05a14f7895146d9e6bea0729604cded2a0bdb8f311140029",
  "source": "pragma solidity ^0.4.4;\n\ncontract Lottery {\n    \n    struct gambler{\n        uint tokens;\n        bytes32 gamblersGuess;\n    }\n    \n    address[] private addressIndices;\n    address[] private winnerIndices;\n    \n    mapping (address => gambler) _accounts;\n    \n    bool gameStatus = true;\n    address owner;\n    bytes32 private winningGuess;\n    \n    modifier onlyOwner() {\n        require(msg.sender == owner);\n        _;\n    }\n    \n    function Lottery() public{\n        owner = msg.sender;\n        winningGuess = sha3(uint(1000));\n    }\n    \n    function () public payable {\n        require (gameStatus == true);\n        require (msg.value == 1 ether);\n        _accounts[msg.sender].tokens += 1;\n        addressIndices.push(msg.sender);\n    }\n    \n    function makeGuess(uint guess) public{\n        require (gameStatus == true);\n        require(guess > 0);\n        require(_accounts[msg.sender].tokens>0);\n        _accounts[msg.sender].tokens -= 1;\n        _accounts[msg.sender].gamblersGuess = sha3(uint(guess));\n    }\n    \n    function closeGame() public onlyOwner returns(bool){\n        winnerAddress();\n        return gameStatus = false;\n    }\n    \n    function winnerAddress() private {\n        uint arrayLength = addressIndices.length;\n        for (uint i = 0; i < arrayLength; i++){\n            if(_accounts[addressIndices[i]].gamblersGuess == winningGuess){\n                winnerIndices.push(addressIndices[i]);\n            }\n        }\n    }\n    function getPrice() public returns(bool){\n        require(msg.sender == winnerIndices[0]);\n        msg.sender.transfer(this.balance/2);\n        owner.transfer(this.balance);\n        return true;\n    }\n    \n    function getTokens() public returns (uint) {\n        return _accounts[msg.sender].tokens;\n    }\n    function getGuess() public returns (bytes32) {\n        return _accounts[msg.sender].gamblersGuess;\n    }\n}",
  "sourcePath": "/Users/sagar/Documents/apps/blockchain/ethLottery/contracts/lottery.sol",
  "compiler": {
    "name": "solc",
    "version": "0.4.21+commit.dfe3193c.Emscripten.clang"
  },
  "schemaVersion": "2.0.0",
  "updatedAt": "2018-04-08T21:35:17.661Z"
}