{
  "contractName": "Lottery",
  "abi": [
    {
      "inputs": [
        {
          "name": "winGuess",
          "type": "uint256"
        }
      ],
      "payable": false,
      "stateMutability": "nonpayable",
      "type": "constructor"
    },
    {
      "payable": true,
      "stateMutability": "payable",
      "type": "fallback"
    },
    {
      "constant": false,
      "inputs": [
        {
          "name": "guess",
          "type": "uint256"
        }
      ],
      "name": "makeGuess",
      "outputs": [],
      "payable": false,
      "stateMutability": "nonpayable",
      "type": "function"
    },
    {
      "constant": false,
      "inputs": [],
      "name": "closeGame",
      "outputs": [
        {
          "name": "",
          "type": "bool"
        }
      ],
      "payable": false,
      "stateMutability": "nonpayable",
      "type": "function"
    },
    {
      "constant": false,
      "inputs": [],
      "name": "getPrice",
      "outputs": [
        {
          "name": "",
          "type": "uint256"
        }
      ],
      "payable": false,
      "stateMutability": "nonpayable",
      "type": "function"
    },
    {
      "constant": true,
      "inputs": [],
      "name": "getTokens",
      "outputs": [
        {
          "name": "",
          "type": "uint256"
        }
      ],
      "payable": false,
      "stateMutability": "view",
      "type": "function"
    },
    {
      "constant": true,
      "inputs": [],
      "name": "getGuess",
      "outputs": [
        {
          "name": "",
          "type": "bytes32"
        }
      ],
      "payable": false,
      "stateMutability": "view",
      "type": "function"
    },
    {
      "constant": true,
      "inputs": [],
      "name": "getStatus",
      "outputs": [
        {
          "name": "",
          "type": "bool"
        }
      ],
      "payable": false,
      "stateMutability": "view",
      "type": "function"
    },
    {
      "constant": true,
      "inputs": [],
      "name": "getOwner",
      "outputs": [
        {
          "name": "",
          "type": "address"
        }
      ],
      "payable": false,
      "stateMutability": "view",
      "type": "function"
    }
  ],
  "bytecode": "0x60606040526001600360006101000a81548160ff021916908315150217905550341561002a57600080fd5b60405160208061095e8339810160405280805190602001909190505033600360016101000a81548173ffffffffffffffffffffffffffffffffffffffff021916908373ffffffffffffffffffffffffffffffffffffffff1602179055508060405180828152602001915050604051809103902060048160001916905550506108a7806100b76000396000f300606060405260043610610083576000357c0100000000000000000000000000000000000000000000000000000000900463ffffffff16806322666da6146101715780634e69d56014610194578063786b844b146101c1578063893d20e8146101ee5780638d582ae41461024357806398d5fdca14610274578063aa6ca8081461029d575b60011515600360009054906101000a900460ff1615151415156100a557600080fd5b670de0b6b3a7640000341415156100bb57600080fd5b6001600260003373ffffffffffffffffffffffffffffffffffffffff1673ffffffffffffffffffffffffffffffffffffffff1681526020019081526020016000206000016000828254019250508190555060008054806001018281610120919061082a565b9160005260206000209001600033909190916101000a81548173ffffffffffffffffffffffffffffffffffffffff021916908373ffffffffffffffffffffffffffffffffffffffff16021790555050005b341561017c57600080fd5b61019260048080359060200190919050506102c6565b005b341561019f57600080fd5b6101a76103fc565b604051808215151515815260200191505060405180910390f35b34156101cc57600080fd5b6101d4610413565b604051808215151515815260200191505060405180910390f35b34156101f957600080fd5b610201610498565b604051808273ffffffffffffffffffffffffffffffffffffffff1673ffffffffffffffffffffffffffffffffffffffff16815260200191505060405180910390f35b341561024e57600080fd5b6102566104c2565b60405180826000191660001916815260200191505060405180910390f35b341561027f57600080fd5b61028761050c565b6040518082815260200191505060405180910390f35b34156102a857600080fd5b6102b061068d565b6040518082815260200191505060405180910390f35b60011515600360009054906101000a900460ff1615151415156102e857600080fd5b6000811115156102f757600080fd5b6000600260003373ffffffffffffffffffffffffffffffffffffffff1673ffffffffffffffffffffffffffffffffffffffff1681526020019081526020016000206000015411151561034857600080fd5b6001600260003373ffffffffffffffffffffffffffffffffffffffff1673ffffffffffffffffffffffffffffffffffffffff1681526020019081526020016000206000016000828254039250508190555080604051808281526020019150506040518091039020600260003373ffffffffffffffffffffffffffffffffffffffff1673ffffffffffffffffffffffffffffffffffffffff168152602001908152602001600020600101816000191690555050565b6000600360009054906101000a900460ff16905090565b6000600360019054906101000a900473ffffffffffffffffffffffffffffffffffffffff1673ffffffffffffffffffffffffffffffffffffffff163373ffffffffffffffffffffffffffffffffffffffff1614151561047157600080fd5b6104796106d7565b6000600360006101000a81548160ff0219169083151502179055905090565b6000600360019054906101000a900473ffffffffffffffffffffffffffffffffffffffff16905090565b6000600260003373ffffffffffffffffffffffffffffffffffffffff1673ffffffffffffffffffffffffffffffffffffffff16815260200190815260200160002060010154905090565b6000803073ffffffffffffffffffffffffffffffffffffffff163190506001600081548110151561053957fe5b906000526020600020900160009054906101000a900473ffffffffffffffffffffffffffffffffffffffff1673ffffffffffffffffffffffffffffffffffffffff163373ffffffffffffffffffffffffffffffffffffffff1614151561059e57600080fd5b3373ffffffffffffffffffffffffffffffffffffffff166108fc60023073ffffffffffffffffffffffffffffffffffffffff16318115156105db57fe5b049081150290604051600060405180830381858888f19350505050151561060157600080fd5b600360019054906101000a900473ffffffffffffffffffffffffffffffffffffffff1673ffffffffffffffffffffffffffffffffffffffff166108fc3073ffffffffffffffffffffffffffffffffffffffff16319081150290604051600060405180830381858888f19350505050151561067a57600080fd5b60028181151561068657fe5b0491505090565b6000600260003373ffffffffffffffffffffffffffffffffffffffff1673ffffffffffffffffffffffffffffffffffffffff16815260200190815260200160002060000154905090565b6000806000805490509150600090505b81811015610826576004546000191660026000808481548110151561070857fe5b906000526020600020900160009054906101000a900473ffffffffffffffffffffffffffffffffffffffff1673ffffffffffffffffffffffffffffffffffffffff1673ffffffffffffffffffffffffffffffffffffffff168152602001908152602001600020600101546000191614156108195760018054806001018281610790919061082a565b9160005260206000209001600080848154811015156107ab57fe5b906000526020600020900160009054906101000a900473ffffffffffffffffffffffffffffffffffffffff16909190916101000a81548173ffffffffffffffffffffffffffffffffffffffff021916908373ffffffffffffffffffffffffffffffffffffffff160217905550505b80806001019150506106e7565b5050565b815481835581811511610851578183600052602060002091820191016108509190610856565b5b505050565b61087891905b8082111561087457600081600090555060010161085c565b5090565b905600a165627a7a72305820def0ac5b9b769c5fada720d776993a8b13edbefd86c4a44095d22f27bbc34aab0029",
  "source": "pragma solidity ^0.4.4;\n\ncontract Lottery {\n    \n    struct gambler{\n        uint tokens;\n        bytes32 gamblersGuess;\n    }\n    \n    address[] private addressIndices;\n    address[] private winnerIndices;\n    \n    mapping (address => gambler) _accounts;\n    \n    bool gameStatus = true;\n    address private owner;\n    bytes32 private winningGuess;\n    \n    modifier onlyOwner() {\n        require(msg.sender == owner);\n        _;\n    }\n    \n    function Lottery(uint winGuess) public{\n        owner = msg.sender;\n        winningGuess = sha3(uint(winGuess));\n    }\n    \n    function () public payable {\n        require (gameStatus == true);\n        require (msg.value == 1 ether);\n        _accounts[msg.sender].tokens += 1;\n        addressIndices.push(msg.sender);\n    }\n    \n    function makeGuess(uint guess) public{\n        require (gameStatus == true);\n        require(guess > 0);\n        require(_accounts[msg.sender].tokens>0);\n        _accounts[msg.sender].tokens -= 1;\n        _accounts[msg.sender].gamblersGuess = sha3(uint(guess));\n    }\n    \n    function closeGame() public onlyOwner returns(bool){\n        winnerAddress();\n        return gameStatus = false;\n    }\n    \n    function winnerAddress() private {\n        uint arrayLength = addressIndices.length;\n        for (uint i = 0; i < arrayLength; i++){\n            if(_accounts[addressIndices[i]].gamblersGuess == winningGuess){\n                winnerIndices.push(addressIndices[i]);\n            }\n        }\n    }\n    function getPrice() public returns(uint){\n        uint price = this.balance;\n        require(msg.sender == winnerIndices[0]);\n        msg.sender.transfer(this.balance/2);\n        owner.transfer(this.balance);\n        return price/2;\n    }\n    //==GETTERS==\n    function getTokens() public constant returns (uint) {\n        return _accounts[msg.sender].tokens;\n    }\n    function getGuess() public constant returns (bytes32) {\n        return _accounts[msg.sender].gamblersGuess;\n    }\n    function getStatus() public constant returns (bool ) {\n        return gameStatus;\n    }  \n    function getOwner() public constant returns (address ) {\n        return owner;\n    } \n}",
  "sourcePath": "/Users/sagar/Documents/apps/blockchain/ethLottery/contracts/lottery.sol",
  "compiler": {
    "name": "solc",
    "version": "0.4.21+commit.dfe3193c.Emscripten.clang"
  },
  "schemaVersion": "2.0.0",
  "updatedAt": "2018-04-10T21:14:22.153Z"
}